{
  "contractName": "Ashyam",
  "abi": [
    {
      "inputs": [
        {
          "internalType": "string",
          "name": "name",
          "type": "string"
        },
        {
          "internalType": "string",
          "name": "symbol",
          "type": "string"
        },
        {
          "internalType": "uint8",
          "name": "decimalsValue",
          "type": "uint8"
        }
      ],
      "stateMutability": "nonpayable",
      "type": "constructor"
    },
    {
      "inputs": [
        {
          "internalType": "address",
          "name": "spender",
          "type": "address"
        },
        {
          "internalType": "address",
          "name": "from",
          "type": "address"
        },
        {
          "internalType": "uint256",
          "name": "currentAllowance",
          "type": "uint256"
        },
        {
          "internalType": "uint256",
          "name": "value",
          "type": "uint256"
        }
      ],
      "name": "InsufficientAllowance",
      "type": "error"
    },
    {
      "inputs": [
        {
          "internalType": "address",
          "name": "from",
          "type": "address"
        },
        {
          "internalType": "uint256",
          "name": "fromBalance",
          "type": "uint256"
        },
        {
          "internalType": "uint256",
          "name": "value",
          "type": "uint256"
        }
      ],
      "name": "InsufficientBalance",
      "type": "error"
    },
    {
      "inputs": [
        {
          "internalType": "address",
          "name": "_to",
          "type": "address"
        }
      ],
      "name": "InvalidReceiver",
      "type": "error"
    },
    {
      "anonymous": false,
      "inputs": [
        {
          "indexed": true,
          "internalType": "address",
          "name": "owner",
          "type": "address"
        },
        {
          "indexed": true,
          "internalType": "address",
          "name": "spender",
          "type": "address"
        },
        {
          "indexed": false,
          "internalType": "uint256",
          "name": "value",
          "type": "uint256"
        }
      ],
      "name": "Approval",
      "type": "event"
    },
    {
      "anonymous": false,
      "inputs": [
        {
          "indexed": false,
          "internalType": "address",
          "name": "from",
          "type": "address"
        },
        {
          "indexed": false,
          "internalType": "uint256",
          "name": "value",
          "type": "uint256"
        }
      ],
      "name": "Burn",
      "type": "event"
    },
    {
      "anonymous": false,
      "inputs": [
        {
          "indexed": false,
          "internalType": "address",
          "name": "to",
          "type": "address"
        },
        {
          "indexed": false,
          "internalType": "uint256",
          "name": "value",
          "type": "uint256"
        }
      ],
      "name": "Mint",
      "type": "event"
    },
    {
      "anonymous": false,
      "inputs": [
        {
          "indexed": true,
          "internalType": "address",
          "name": "from",
          "type": "address"
        },
        {
          "indexed": true,
          "internalType": "address",
          "name": "to",
          "type": "address"
        },
        {
          "indexed": false,
          "internalType": "uint256",
          "name": "value",
          "type": "uint256"
        }
      ],
      "name": "Transfer",
      "type": "event"
    },
    {
      "inputs": [],
      "name": "TokenAbbreviation",
      "outputs": [
        {
          "internalType": "string",
          "name": "",
          "type": "string"
        }
      ],
      "stateMutability": "view",
      "type": "function",
      "constant": true
    },
    {
      "inputs": [],
      "name": "TokenName",
      "outputs": [
        {
          "internalType": "string",
          "name": "",
          "type": "string"
        }
      ],
      "stateMutability": "view",
      "type": "function",
      "constant": true
    },
    {
      "inputs": [
        {
          "internalType": "address",
          "name": "to",
          "type": "address"
        },
        {
          "internalType": "uint256",
          "name": "value",
          "type": "uint256"
        }
      ],
      "name": "mint",
      "outputs": [
        {
          "internalType": "bool",
          "name": "",
          "type": "bool"
        }
      ],
      "stateMutability": "nonpayable",
      "type": "function"
    },
    {
      "inputs": [
        {
          "internalType": "uint256",
          "name": "value",
          "type": "uint256"
        }
      ],
      "name": "burn",
      "outputs": [
        {
          "internalType": "bool",
          "name": "",
          "type": "bool"
        }
      ],
      "stateMutability": "nonpayable",
      "type": "function"
    },
    {
      "inputs": [],
      "name": "totalSupply",
      "outputs": [
        {
          "internalType": "uint256",
          "name": "",
          "type": "uint256"
        }
      ],
      "stateMutability": "view",
      "type": "function",
      "constant": true
    },
    {
      "inputs": [
        {
          "internalType": "address",
          "name": "account",
          "type": "address"
        }
      ],
      "name": "balanceOf",
      "outputs": [
        {
          "internalType": "uint256",
          "name": "",
          "type": "uint256"
        }
      ],
      "stateMutability": "view",
      "type": "function",
      "constant": true
    },
    {
      "inputs": [
        {
          "internalType": "address",
          "name": "to",
          "type": "address"
        },
        {
          "internalType": "uint256",
          "name": "value",
          "type": "uint256"
        }
      ],
      "name": "transfer",
      "outputs": [
        {
          "internalType": "bool",
          "name": "",
          "type": "bool"
        }
      ],
      "stateMutability": "nonpayable",
      "type": "function"
    },
    {
      "inputs": [
        {
          "internalType": "address",
          "name": "owner",
          "type": "address"
        },
        {
          "internalType": "address",
          "name": "spender",
          "type": "address"
        }
      ],
      "name": "allowance",
      "outputs": [
        {
          "internalType": "uint256",
          "name": "",
          "type": "uint256"
        }
      ],
      "stateMutability": "view",
      "type": "function",
      "constant": true
    },
    {
      "inputs": [
        {
          "internalType": "address",
          "name": "spender",
          "type": "address"
        },
        {
          "internalType": "uint256",
          "name": "value",
          "type": "uint256"
        }
      ],
      "name": "approve",
      "outputs": [
        {
          "internalType": "bool",
          "name": "",
          "type": "bool"
        }
      ],
      "stateMutability": "nonpayable",
      "type": "function"
    },
    {
      "inputs": [
        {
          "internalType": "address",
          "name": "from",
          "type": "address"
        },
        {
          "internalType": "address",
          "name": "to",
          "type": "address"
        },
        {
          "internalType": "uint256",
          "name": "value",
          "type": "uint256"
        }
      ],
      "name": "transferFrom",
      "outputs": [
        {
          "internalType": "bool",
          "name": "",
          "type": "bool"
        }
      ],
      "stateMutability": "nonpayable",
      "type": "function"
    },
    {
      "inputs": [],
      "name": "getOwner",
      "outputs": [
        {
          "internalType": "address",
          "name": "",
          "type": "address"
        }
      ],
      "stateMutability": "view",
      "type": "function",
      "constant": true
    },
    {
      "inputs": [],
      "name": "decimals",
      "outputs": [
        {
          "internalType": "uint8",
          "name": "",
          "type": "uint8"
        }
      ],
      "stateMutability": "view",
      "type": "function",
      "constant": true
    }
  ],
  "bytecode": "0x608060405260006004553480156200001657600080fd5b5060405162001a1338038062001a1383398181016040528101906200003c91906200035e565b826000908051906020019062000054929190620000d3565b5081600190805190602001906200006d929190620000d3565b5080600260146101000a81548160ff021916908360ff16021790555033600260006101000a81548173ffffffffffffffffffffffffffffffffffffffff021916908373ffffffffffffffffffffffffffffffffffffffff1602179055505050506200045d565b828054620000e19062000427565b90600052602060002090601f01602090048101928262000105576000855562000151565b82601f106200012057805160ff191683800117855562000151565b8280016001018555821562000151579182015b828111156200015057825182559160200191906001019062000133565b5b50905062000160919062000164565b5090565b5b808211156200017f57600081600090555060010162000165565b5090565b6000604051905090565b600080fd5b600080fd5b600080fd5b600080fd5b6000601f19601f8301169050919050565b7f4e487b7100000000000000000000000000000000000000000000000000000000600052604160045260246000fd5b620001ec82620001a1565b810181811067ffffffffffffffff821117156200020e576200020d620001b2565b5b80604052505050565b60006200022362000183565b9050620002318282620001e1565b919050565b600067ffffffffffffffff821115620002545762000253620001b2565b5b6200025f82620001a1565b9050602081019050919050565b60005b838110156200028c5780820151818401526020810190506200026f565b838111156200029c576000848401525b50505050565b6000620002b9620002b38462000236565b62000217565b905082815260208101848484011115620002d857620002d76200019c565b5b620002e58482856200026c565b509392505050565b600082601f83011262000305576200030462000197565b5b815162000317848260208601620002a2565b91505092915050565b600060ff82169050919050565b620003388162000320565b81146200034457600080fd5b50565b60008151905062000358816200032d565b92915050565b6000806000606084860312156200037a57620003796200018d565b5b600084015167ffffffffffffffff8111156200039b576200039a62000192565b5b620003a986828701620002ed565b935050602084015167ffffffffffffffff811115620003cd57620003cc62000192565b5b620003db86828701620002ed565b9250506040620003ee8682870162000347565b9150509250925092565b7f4e487b7100000000000000000000000000000000000000000000000000000000600052602260045260246000fd5b600060028204905060018216806200044057607f821691505b60208210811415620004575762000456620003f8565b5b50919050565b6115a6806200046d6000396000f3fe608060405234801561001057600080fd5b50600436106100b45760003560e01c806370a082311161007157806370a08231146101b5578063893d20e8146101e55780638abb11a314610203578063a9059cbb14610221578063b6d7855a14610251578063dd62ed3e1461026f576100b4565b8063095ea7b3146100b957806318160ddd146100e957806323b872dd14610107578063313ce5671461013757806340c10f191461015557806342966c6814610185575b600080fd5b6100d360048036038101906100ce9190611076565b61029f565b6040516100e091906110d1565b60405180910390f35b6100f16104fe565b6040516100fe91906110fb565b60405180910390f35b610121600480360381019061011c9190611116565b610508565b60405161012e91906110d1565b60405180910390f35b61013f610885565b60405161014c9190611185565b60405180910390f35b61016f600480360381019061016a9190611076565b61089c565b60405161017c91906110d1565b60405180910390f35b61019f600480360381019061019a91906111a0565b6109e0565b6040516101ac91906110d1565b60405180910390f35b6101cf60048036038101906101ca91906111cd565b610b65565b6040516101dc91906110fb565b60405180910390f35b6101ed610bae565b6040516101fa9190611209565b60405180910390f35b61020b610bd8565b60405161021891906112bd565b60405180910390f35b61023b60048036038101906102369190611076565b610c66565b60405161024891906110d1565b60405180910390f35b610259610ec8565b60405161026691906112bd565b60405180910390f35b610289600480360381019061028491906112df565b610f56565b60405161029691906110fb565b60405180910390f35b6000803390506000600360008373ffffffffffffffffffffffffffffffffffffffff1673ffffffffffffffffffffffffffffffffffffffff168152602001908152602001600020549050600073ffffffffffffffffffffffffffffffffffffffff168573ffffffffffffffffffffffffffffffffffffffff16141561035b57846040517f9cfea5830000000000000000000000000000000000000000000000000000000081526004016103529190611209565b60405180910390fd5b838110156103a4578181856040517fdb42144d00000000000000000000000000000000000000000000000000000000815260040161039b9392919061131f565b60405180910390fd5b83600360008473ffffffffffffffffffffffffffffffffffffffff1673ffffffffffffffffffffffffffffffffffffffff16815260200190815260200160002060008282546103f39190611385565b9250508190555083600560008473ffffffffffffffffffffffffffffffffffffffff1673ffffffffffffffffffffffffffffffffffffffff16815260200190815260200160002060008773ffffffffffffffffffffffffffffffffffffffff1673ffffffffffffffffffffffffffffffffffffffff168152602001908152602001600020600082825461048691906113b9565b925050819055508473ffffffffffffffffffffffffffffffffffffffff168273ffffffffffffffffffffffffffffffffffffffff167f8c5be1e5ebec7d5bd14f71427d1e84f3dd0314c0f7b2291e5b200ac8c7c3b925866040516104ea91906110fb565b60405180910390a360019250505092915050565b6000600454905090565b60008073ffffffffffffffffffffffffffffffffffffffff168373ffffffffffffffffffffffffffffffffffffffff16141561057b57826040517f9cfea5830000000000000000000000000000000000000000000000000000000081526004016105729190611209565b60405180910390fd5b6000600560008673ffffffffffffffffffffffffffffffffffffffff1673ffffffffffffffffffffffffffffffffffffffff16815260200190815260200160002060003373ffffffffffffffffffffffffffffffffffffffff1673ffffffffffffffffffffffffffffffffffffffff1681526020019081526020016000205490506000600360008773ffffffffffffffffffffffffffffffffffffffff1673ffffffffffffffffffffffffffffffffffffffff16815260200190815260200160002054905083811015610689578581856040517fdb42144d0000000000000000000000000000000000000000000000000000000081526004016106809392919061131f565b60405180910390fd5b838210156106d457338683866040517f91beda240000000000000000000000000000000000000000000000000000000081526004016106cb949392919061140f565b60405180910390fd5b83600360008873ffffffffffffffffffffffffffffffffffffffff1673ffffffffffffffffffffffffffffffffffffffff16815260200190815260200160002060008282546107239190611385565b9250508190555083600360008773ffffffffffffffffffffffffffffffffffffffff1673ffffffffffffffffffffffffffffffffffffffff168152602001908152602001600020600082825461077991906113b9565b9250508190555083600560008873ffffffffffffffffffffffffffffffffffffffff1673ffffffffffffffffffffffffffffffffffffffff16815260200190815260200160002060003373ffffffffffffffffffffffffffffffffffffffff1673ffffffffffffffffffffffffffffffffffffffff168152602001908152602001600020600082825461080c9190611385565b925050819055508473ffffffffffffffffffffffffffffffffffffffff168673ffffffffffffffffffffffffffffffffffffffff167fddf252ad1be2c89b69c2b068fc378daa952ba7f163c4a11628f55a4df523b3ef8660405161087091906110fb565b60405180910390a36001925050509392505050565b6000600260149054906101000a900460ff16905090565b6000600260009054906101000a900473ffffffffffffffffffffffffffffffffffffffff1673ffffffffffffffffffffffffffffffffffffffff163373ffffffffffffffffffffffffffffffffffffffff161461092e576040517f08c379a0000000000000000000000000000000000000000000000000000000008152600401610925906114c6565b60405180910390fd5b81600360008573ffffffffffffffffffffffffffffffffffffffff1673ffffffffffffffffffffffffffffffffffffffff168152602001908152602001600020600082825461097d91906113b9565b92505081905550816004600082825461099691906113b9565b925050819055507f0f6798a560793a54c3bcfe86a93cde1e73087d944c0ea20544137d412139688583836040516109ce9291906114e6565b60405180910390a16001905092915050565b6000803390506000600360008373ffffffffffffffffffffffffffffffffffffffff1673ffffffffffffffffffffffffffffffffffffffff16815260200190815260200160002054905083600360008473ffffffffffffffffffffffffffffffffffffffff1673ffffffffffffffffffffffffffffffffffffffff168152602001908152602001600020541015610ab2578181856040517fdb42144d000000000000000000000000000000000000000000000000000000008152600401610aa99392919061131f565b60405180910390fd5b83600360008473ffffffffffffffffffffffffffffffffffffffff1673ffffffffffffffffffffffffffffffffffffffff1681526020019081526020016000206000828254610b019190611385565b925050819055508360046000828254610b1a9190611385565b925050819055507fcc16f5dbb4873280815c1ee09dbd06736cffcc184412cf7a71a0fdb75d397ca58285604051610b529291906114e6565b60405180910390a1600192505050919050565b6000600360008373ffffffffffffffffffffffffffffffffffffffff1673ffffffffffffffffffffffffffffffffffffffff168152602001908152602001600020549050919050565b6000600260009054906101000a900473ffffffffffffffffffffffffffffffffffffffff16905090565b60018054610be59061153e565b80601f0160208091040260200160405190810160405280929190818152602001828054610c119061153e565b8015610c5e5780601f10610c3357610100808354040283529160200191610c5e565b820191906000526020600020905b815481529060010190602001808311610c4157829003601f168201915b505050505081565b60008073ffffffffffffffffffffffffffffffffffffffff168373ffffffffffffffffffffffffffffffffffffffff161415610cda5760006040517f9cfea583000000000000000000000000000000000000000000000000000000008152600401610cd19190611209565b60405180910390fd5b60003390506000600360008373ffffffffffffffffffffffffffffffffffffffff1673ffffffffffffffffffffffffffffffffffffffff16815260200190815260200160002054905083600360008473ffffffffffffffffffffffffffffffffffffffff1673ffffffffffffffffffffffffffffffffffffffff168152602001908152602001600020541015610dab578181856040517fdb42144d000000000000000000000000000000000000000000000000000000008152600401610da29392919061131f565b60405180910390fd5b83600360008473ffffffffffffffffffffffffffffffffffffffff1673ffffffffffffffffffffffffffffffffffffffff1681526020019081526020016000206000828254610dfa9190611385565b9250508190555083600360008773ffffffffffffffffffffffffffffffffffffffff1673ffffffffffffffffffffffffffffffffffffffff1681526020019081526020016000206000828254610e5091906113b9565b925050819055508473ffffffffffffffffffffffffffffffffffffffff168273ffffffffffffffffffffffffffffffffffffffff167fddf252ad1be2c89b69c2b068fc378daa952ba7f163c4a11628f55a4df523b3ef86604051610eb491906110fb565b60405180910390a360019250505092915050565b60008054610ed59061153e565b80601f0160208091040260200160405190810160405280929190818152602001828054610f019061153e565b8015610f4e5780601f10610f2357610100808354040283529160200191610f4e565b820191906000526020600020905b815481529060010190602001808311610f3157829003601f168201915b505050505081565b6000600560008473ffffffffffffffffffffffffffffffffffffffff1673ffffffffffffffffffffffffffffffffffffffff16815260200190815260200160002060008373ffffffffffffffffffffffffffffffffffffffff1673ffffffffffffffffffffffffffffffffffffffff16815260200190815260200160002054905092915050565b600080fd5b600073ffffffffffffffffffffffffffffffffffffffff82169050919050565b600061100d82610fe2565b9050919050565b61101d81611002565b811461102857600080fd5b50565b60008135905061103a81611014565b92915050565b6000819050919050565b61105381611040565b811461105e57600080fd5b50565b6000813590506110708161104a565b92915050565b6000806040838503121561108d5761108c610fdd565b5b600061109b8582860161102b565b92505060206110ac85828601611061565b9150509250929050565b60008115159050919050565b6110cb816110b6565b82525050565b60006020820190506110e660008301846110c2565b92915050565b6110f581611040565b82525050565b600060208201905061111060008301846110ec565b92915050565b60008060006060848603121561112f5761112e610fdd565b5b600061113d8682870161102b565b935050602061114e8682870161102b565b925050604061115f86828701611061565b9150509250925092565b600060ff82169050919050565b61117f81611169565b82525050565b600060208201905061119a6000830184611176565b92915050565b6000602082840312156111b6576111b5610fdd565b5b60006111c484828501611061565b91505092915050565b6000602082840312156111e3576111e2610fdd565b5b60006111f18482850161102b565b91505092915050565b61120381611002565b82525050565b600060208201905061121e60008301846111fa565b92915050565b600081519050919050565b600082825260208201905092915050565b60005b8381101561125e578082015181840152602081019050611243565b8381111561126d576000848401525b50505050565b6000601f19601f8301169050919050565b600061128f82611224565b611299818561122f565b93506112a9818560208601611240565b6112b281611273565b840191505092915050565b600060208201905081810360008301526112d78184611284565b905092915050565b600080604083850312156112f6576112f5610fdd565b5b60006113048582860161102b565b92505060206113158582860161102b565b9150509250929050565b600060608201905061133460008301866111fa565b61134160208301856110ec565b61134e60408301846110ec565b949350505050565b7f4e487b7100000000000000000000000000000000000000000000000000000000600052601160045260246000fd5b600061139082611040565b915061139b83611040565b9250828210156113ae576113ad611356565b5b828203905092915050565b60006113c482611040565b91506113cf83611040565b9250827fffffffffffffffffffffffffffffffffffffffffffffffffffffffffffffffff0382111561140457611403611356565b5b828201905092915050565b600060808201905061142460008301876111fa565b61143160208301866111fa565b61143e60408301856110ec565b61144b60608301846110ec565b95945050505050565b7f4f6e6c79206f776e65722063616e20706572666f726d2074686973206163746960008201527f6f6e000000000000000000000000000000000000000000000000000000000000602082015250565b60006114b060228361122f565b91506114bb82611454565b604082019050919050565b600060208201905081810360008301526114df816114a3565b9050919050565b60006040820190506114fb60008301856111fa565b61150860208301846110ec565b9392505050565b7f4e487b7100000000000000000000000000000000000000000000000000000000600052602260045260246000fd5b6000600282049050600182168061155657607f821691505b6020821081141561156a5761156961150f565b5b5091905056fea26469706673582212209b2c598bfc5344f11aa688b1560ad88073f5eaa29546a4bfee0acd53d1ada5f364736f6c63430008090033",
  "immutableReferences": {},
  "source": "// SPDX-License-Identifier: MIT\npragma solidity ^0.8;\n\nimport \"@openzeppelin/contracts/token/ERC20/IERC20.sol\";\n\ncontract Ashyam is IERC20 {\n    string public TokenName;\n    string public TokenAbbreviation;\n    address private _owner;\n    uint8 private _decimals;\n    mapping(address => uint256) private _balances;\n    uint256 private _totalSupply = 0;\n\n    mapping(address => mapping(address => uint256)) private _allowances;\n\n    event Burn(address from, uint256 value);\n    event Mint(address to, uint256 value);\n\n    constructor(string memory name, string memory symbol, uint8 decimalsValue) {\n        TokenName = name;\n        TokenAbbreviation = symbol;\n        _decimals = decimalsValue;\n        _owner = msg.sender;\n    }\n\n    modifier onlyOwner {\n        require(msg.sender == _owner, \"Only owner can perform this action\");\n        _;\n    }\n\n    function mint(address to, uint256 value) public onlyOwner returns (bool) {\n        _balances[to] += value;\n        _totalSupply += value;\n        emit Mint(to, value);\n        return true;\n    }\n\n    function burn(uint256 value) public returns (bool) {\n        address sender = msg.sender;\n        uint256 senderBalance = _balances[sender];\n        if (_balances[sender] < value) {\n            revert InsufficientBalance(sender, senderBalance, value);\n        }\n        _balances[sender] -= value;\n        _totalSupply -= value;\n        emit Burn(sender, value);\n        return true;\n    }\n\n    function totalSupply() external view override returns (uint256) {\n        return _totalSupply;\n    }\n\n    function balanceOf(address account) external view override returns (uint256) {\n        return _balances[account];\n    }\n\n    function transfer(address to, uint256 value) public returns (bool) {\n        if (to == address(0)) {\n            revert InvalidReceiver(address(0));\n        }\n        address sender = msg.sender;\n        uint256 senderBalance = _balances[sender];\n        if (_balances[sender] < value) {\n            revert InsufficientBalance(sender, senderBalance, value);\n        }\n        _balances[sender] -= value;\n        _balances[to] += value;\n        emit Transfer(sender, to, value);\n        return true;\n    }\n\n    function allowance(address owner, address spender) external view returns (uint256) {\n        return _allowances[owner][spender];\n    }\n\n    function approve(address spender, uint256 value) external returns (bool) {\n        address owner = msg.sender;\n        uint256 ownerBalance = _balances[owner];\n        if (spender == address(0)) {\n            revert InvalidReceiver(spender);\n        }\n        if (ownerBalance < value) {\n            revert InsufficientBalance(owner, ownerBalance, value);\n        }\n        _balances[owner] -= value;\n        _allowances[owner][spender] += value;\n        emit Approval(owner, spender, value);\n        return true;\n    }\n\n    function transferFrom(address from, address to, uint256 value) public returns (bool) {\n        if (to == address(0)) {\n            revert InvalidReceiver(to);\n        }\n        uint256 allowanceBalance = _allowances[from][msg.sender];\n        uint256 senderBalance = _balances[from];\n\n        if (senderBalance < value) {\n            revert InsufficientBalance(from, senderBalance, value);\n        }\n\n        if (allowanceBalance < value) {\n            revert InsufficientAllowance(msg.sender, from, allowanceBalance, value);\n        }\n\n        _balances[from] -= value;\n        _balances[to] += value;\n        _allowances[from][msg.sender] -= value;\n\n        emit Transfer(from, to, value);\n        return true;\n    }\n\n    function getOwner() external view returns (address) {\n        return _owner;\n    }\n\n    function decimals() external view returns (uint8) {\n        return _decimals;\n    }\n\n    error InvalidReceiver(address _to);\n\n    error InsufficientBalance(address from, uint256 fromBalance, uint256 value);\n    error InsufficientAllowance(address spender, address from, uint256 currentAllowance, uint256 value);\n}\n",
  "sourcePath": "/workspace/Eth-Avax-module-2-project/contracts/Mytoken.sol",
  "compiler": {
    "name": "solc",
    "version": "0.8.9+commit.e5eed63a.Emscripten.clang"
  },
  "schemaVersion": "3.4.14",
  "updatedAt": "2023-07-19T07:49:53.007Z",
  "networkType": "ethereum",
  "devdoc": {
    "kind": "dev",
    "methods": {
      "allowance(address,address)": {
        "details": "Returns the remaining number of tokens that `spender` will be allowed to spend on behalf of `owner` through {transferFrom}. This is zero by default. This value changes when {approve} or {transferFrom} are called."
      },
      "balanceOf(address)": {
        "details": "Returns the amount of tokens owned by `account`."
      },
      "totalSupply()": {
        "details": "Returns the amount of tokens in existence."
      }
    },
    "version": 1
  },
  "userdoc": {
    "kind": "user",
    "methods": {},
    "version": 1
  }
}