{
  "contractName": "Myproject",
  "abi": [
    {
      "inputs": [
        {
          "internalType": "uint256",
          "name": "initBalance",
          "type": "uint256"
        }
      ],
      "stateMutability": "payable",
      "type": "constructor",
      "payable": true
    },
    {
      "inputs": [
        {
          "internalType": "uint256",
          "name": "balance",
          "type": "uint256"
        },
        {
          "internalType": "uint256",
          "name": "withdrawAmount",
          "type": "uint256"
        }
      ],
      "name": "InsufficientBalance",
      "type": "error"
    },
    {
      "anonymous": false,
      "inputs": [
        {
          "indexed": false,
          "internalType": "uint256",
          "name": "amount",
          "type": "uint256"
        }
      ],
      "name": "Deposit",
      "type": "event"
    },
    {
      "anonymous": false,
      "inputs": [
        {
          "indexed": true,
          "internalType": "address",
          "name": "to",
          "type": "address"
        },
        {
          "indexed": false,
          "internalType": "uint256",
          "name": "amount",
          "type": "uint256"
        }
      ],
      "name": "Transfer",
      "type": "event"
    },
    {
      "anonymous": false,
      "inputs": [
        {
          "indexed": false,
          "internalType": "uint256",
          "name": "amount",
          "type": "uint256"
        }
      ],
      "name": "Withdraw",
      "type": "event"
    },
    {
      "inputs": [],
      "name": "balance",
      "outputs": [
        {
          "internalType": "uint256",
          "name": "",
          "type": "uint256"
        }
      ],
      "stateMutability": "view",
      "type": "function",
      "constant": true
    },
    {
      "inputs": [],
      "name": "owner",
      "outputs": [
        {
          "internalType": "address payable",
          "name": "",
          "type": "address"
        }
      ],
      "stateMutability": "view",
      "type": "function",
      "constant": true
    },
    {
      "inputs": [],
      "name": "getBalance",
      "outputs": [
        {
          "internalType": "uint256",
          "name": "",
          "type": "uint256"
        }
      ],
      "stateMutability": "view",
      "type": "function",
      "constant": true
    },
    {
      "inputs": [
        {
          "internalType": "uint256",
          "name": "_amount",
          "type": "uint256"
        }
      ],
      "name": "deposit",
      "outputs": [],
      "stateMutability": "payable",
      "type": "function",
      "payable": true
    },
    {
      "inputs": [
        {
          "internalType": "uint256",
          "name": "_withdrawAmount",
          "type": "uint256"
        }
      ],
      "name": "withdraw",
      "outputs": [],
      "stateMutability": "nonpayable",
      "type": "function"
    },
    {
      "inputs": [
        {
          "internalType": "address",
          "name": "_to",
          "type": "address"
        },
        {
          "internalType": "uint256",
          "name": "_amount",
          "type": "uint256"
        }
      ],
      "name": "transfer",
      "outputs": [],
      "stateMutability": "nonpayable",
      "type": "function"
    },
    {
      "inputs": [],
      "name": "getOwner",
      "outputs": [
        {
          "internalType": "address",
          "name": "",
          "type": "address"
        }
      ],
      "stateMutability": "view",
      "type": "function",
      "constant": true
    }
  ],
  "bytecode": "0x6080604052604051610ac2380380610ac2833981810160405281019061002591906100ad565b336000806101000a81548173ffffffffffffffffffffffffffffffffffffffff021916908373ffffffffffffffffffffffffffffffffffffffff16021790555080600181905550506100da565b600080fd5b6000819050919050565b61008a81610077565b811461009557600080fd5b50565b6000815190506100a781610081565b92915050565b6000602082840312156100c3576100c2610072565b5b60006100d184828501610098565b91505092915050565b6109d9806100e96000396000f3fe6080604052600436106100705760003560e01c80638da5cb5b1161004e5780638da5cb5b146100f4578063a9059cbb1461011f578063b69ef8a814610148578063b6b55f251461017357610070565b806312065fe0146100755780632e1a7d4d146100a0578063893d20e8146100c9575b600080fd5b34801561008157600080fd5b5061008a61018f565b6040516100979190610606565b60405180910390f35b3480156100ac57600080fd5b506100c760048036038101906100c29190610652565b610199565b005b3480156100d557600080fd5b506100de6102ea565b6040516100eb91906106c0565b60405180910390f35b34801561010057600080fd5b50610109610313565b60405161011691906106fc565b60405180910390f35b34801561012b57600080fd5b5061014660048036038101906101419190610743565b610337565b005b34801561015457600080fd5b5061015d6104e1565b60405161016a9190610606565b60405180910390f35b61018d60048036038101906101889190610652565b6104e7565b005b6000600154905090565b60008054906101000a900473ffffffffffffffffffffffffffffffffffffffff1673ffffffffffffffffffffffffffffffffffffffff163373ffffffffffffffffffffffffffffffffffffffff1614610227576040517f08c379a000000000000000000000000000000000000000000000000000000000815260040161021e90610806565b60405180910390fd5b6000600154905081600154101561027957600154826040517fcf479181000000000000000000000000000000000000000000000000000000008152600401610270929190610826565b60405180910390fd5b816001600082825461028b919061087e565b92505081905550818161029e919061087e565b600154146102af576102ae6108b2565b5b7f5b6b431d4476a211bb7d41c20d1aab9ae2321deee0d20be3d9fc9b1093fa6e3d826040516102de9190610606565b60405180910390a15050565b60008060009054906101000a900473ffffffffffffffffffffffffffffffffffffffff16905090565b60008054906101000a900473ffffffffffffffffffffffffffffffffffffffff1681565b60008054906101000a900473ffffffffffffffffffffffffffffffffffffffff1673ffffffffffffffffffffffffffffffffffffffff163373ffffffffffffffffffffffffffffffffffffffff16146103c5576040517f08c379a00000000000000000000000000000000000000000000000000000000081526004016103bc90610806565b60405180910390fd5b60006001549050816001541015610411576040517f08c379a00000000000000000000000000000000000000000000000000000000081526004016104089061092d565b60405180910390fd5b8160016000828254610423919061087e565b925050819055508181610436919061087e565b60015414610447576104466108b2565b5b8273ffffffffffffffffffffffffffffffffffffffff166108fc839081150290604051600060405180830381858888f1935050505015801561048d573d6000803e3d6000fd5b508273ffffffffffffffffffffffffffffffffffffffff167f69ca02dd4edd7bf0a4abb9ed3b7af3f14778db5d61921c7dc7cd545266326de2836040516104d49190610606565b60405180910390a2505050565b60015481565b6000600154905060008054906101000a900473ffffffffffffffffffffffffffffffffffffffff1673ffffffffffffffffffffffffffffffffffffffff163373ffffffffffffffffffffffffffffffffffffffff161461057c576040517f08c379a000000000000000000000000000000000000000000000000000000000815260040161057390610806565b60405180910390fd5b816001600082825461058e919061094d565b9250508190555081816105a1919061094d565b600154146105b2576105b16108b2565b5b7f4d6ce1e535dbade1c23defba91e23b8f791ce5edc0cc320257a2b364e4e38426826040516105e19190610606565b60405180910390a15050565b6000819050919050565b610600816105ed565b82525050565b600060208201905061061b60008301846105f7565b92915050565b600080fd5b61062f816105ed565b811461063a57600080fd5b50565b60008135905061064c81610626565b92915050565b60006020828403121561066857610667610621565b5b60006106768482850161063d565b91505092915050565b600073ffffffffffffffffffffffffffffffffffffffff82169050919050565b60006106aa8261067f565b9050919050565b6106ba8161069f565b82525050565b60006020820190506106d560008301846106b1565b92915050565b60006106e68261067f565b9050919050565b6106f6816106db565b82525050565b600060208201905061071160008301846106ed565b92915050565b6107208161069f565b811461072b57600080fd5b50565b60008135905061073d81610717565b92915050565b6000806040838503121561075a57610759610621565b5b60006107688582860161072e565b92505060206107798582860161063d565b9150509250929050565b600082825260208201905092915050565b7f596f7520617265206e6f7420746865206f776e6572206f66207468697320616360008201527f636f756e74000000000000000000000000000000000000000000000000000000602082015250565b60006107f0602583610783565b91506107fb82610794565b604082019050919050565b6000602082019050818103600083015261081f816107e3565b9050919050565b600060408201905061083b60008301856105f7565b61084860208301846105f7565b9392505050565b7f4e487b7100000000000000000000000000000000000000000000000000000000600052601160045260246000fd5b6000610889826105ed565b9150610894836105ed565b9250828210156108a7576108a661084f565b5b828203905092915050565b7f4e487b7100000000000000000000000000000000000000000000000000000000600052600160045260246000fd5b7f496e73756666696369656e742062616c616e636520746f207472616e73666572600082015250565b6000610917602083610783565b9150610922826108e1565b602082019050919050565b600060208201905081810360008301526109468161090a565b9050919050565b6000610958826105ed565b9150610963836105ed565b9250827fffffffffffffffffffffffffffffffffffffffffffffffffffffffffffffffff038211156109985761099761084f565b5b82820190509291505056fea26469706673582212203fc805248af6cdd227d299bf7bcb85e48b9eeef5fa56e5a26d01200b13cbdcf264736f6c63430008090033",
  "immutableReferences": {},
  "source": "// SPDX-License-Identifier: UNLICENSED\npragma solidity ^0.8.9;\n\ncontract Myproject {\n    address payable public owner;\n    uint256 public balance;\n\n    event Deposit(uint256 amount);\n    event Withdraw(uint256 amount);\n    event Transfer(address indexed to, uint256 amount);\n\n    constructor(uint initBalance) payable {\n        owner = payable(msg.sender);\n        balance = initBalance;\n    }\n\n    function getBalance() public view returns (uint256) {\n        return balance;\n    }\n\n    function deposit(uint256 _amount) public payable {\n        uint256 _previousBalance = balance;\n\n        // make sure this is the owner\n        require(msg.sender == owner, \"You are not the owner of this account\");\n\n        // perform transaction\n        balance += _amount;\n\n        // assert transaction completed successfully\n        assert(balance == _previousBalance + _amount);\n\n        // emit the event\n        emit Deposit(_amount);\n    }\n\n    // custom error\n    error InsufficientBalance(uint256 balance, uint256 withdrawAmount);\n\n    function withdraw(uint256 _withdrawAmount) public {\n        require(msg.sender == owner, \"You are not the owner of this account\");\n        uint256 _previousBalance = balance;\n        if (balance < _withdrawAmount) {\n            revert InsufficientBalance({\n                balance: balance,\n                withdrawAmount: _withdrawAmount\n            });\n        }\n\n        // withdraw the given amount\n        balance -= _withdrawAmount;\n\n        // assert the balance is correct\n        assert(balance == (_previousBalance - _withdrawAmount));\n\n        // emit the event\n        emit Withdraw(_withdrawAmount);\n    }\n\n    function transfer(address _to, uint256 _amount) public {\n        require(msg.sender == owner, \"You are not the owner of this account\");\n        uint256 _previousBalance = balance;\n        require(balance >= _amount, \"Insufficient balance to transfer\");\n\n        // perform the transfer\n        balance -= _amount;\n\n        // assert the balance is correct\n        assert(balance == (_previousBalance - _amount));\n\n        // transfer funds to the specified address\n        payable(_to).transfer(_amount);\n\n        // emit the event\n        emit Transfer(_to, _amount);\n    }\n\n    function getOwner() public view returns (address) {\n        return owner;\n    }\n}\n",
  "sourcePath": "/workspace/SCM-Starter/my-solidity-project/contracts/Myproject.sol",
  "compiler": {
    "name": "solc",
    "version": "0.8.9+commit.e5eed63a.Emscripten.clang"
  },
  "schemaVersion": "3.4.14",
  "updatedAt": "2023-07-17T06:10:28.871Z",
  "networkType": "ethereum",
  "devdoc": {
    "kind": "dev",
    "methods": {},
    "version": 1
  },
  "userdoc": {
    "kind": "user",
    "methods": {},
    "version": 1
  }
}